:020000040000FA
:10000000B0020010650100006D0100006F010000EA
:1000100000000000000000000000000000000000E0
:10002000000000000000000000000000710100005E
:1000300000000000000000007301000075010000D6
:1000400077010000770100007701000077010000D0
:1000500077010000770100007701000077010000C0
:1000600077010000770100007701000077010000B0
:1000700077010000770100007701000077010000A0
:100080007701000077010000770100007701000090
:1000900077010000C504000077010000770100002F
:1000A0007701000077010000770100007701000070
:1000B0007701000077010000770100007701000060
:1000C00000F002F800F03EF80CA030C80838241800
:1000D0002D18A246671EAB4654465D46AC4201D180
:1000E00000F030F87E460F3E0FCCB6460126334274
:1000F00000D0FB1AA246AB4633431847DC0400008D
:10010000FC040000103A02D378C878C1FAD852072C
:1001100001D330C830C101D504680C6070470000BD
:100120000023002400250026103A01D378C1FBD813
:10013000520700D330C100D50B6070471FB51FBDFB
:1001400010B510BD00F0DCF81146FFF7F7FF00F026
:10015000FDF900F0F4F803B4FFF7F2FF03BC00F080
:10016000CCF800000748804707480047FEE7FEE755
:10017000FEE7FEE7FEE7FEE704480549034A054BB4
:1001800070470000A1030000C1000000B000001093
:10019000B0020010B00000107047002203098B422B
:1001A0002CD3030A8B4211D300239C464EE0034616
:1001B0000B433CD4002243088B4231D303098B42CA
:1001C0001CD3030A8B4201D394463FE0C3098B4200
:1001D00001D3CB01C01A524183098B4201D38B0159
:1001E000C01A524143098B4201D34B01C01A5241FC
:1001F00003098B4201D30B01C01A5241C3088B4241
:1002000001D3CB00C01A524183088B4201D38B002B
:10021000C01A524143088B4201D34B00C01A5241CD
:10022000411A00D201465241104670475DE0CA0FA4
:1002300000D04942031000D34042534000229C4664
:1002400003098B422DD3030A8B4212D3FC2289016E
:1002500012BA030A8B420CD3890192118B4208D344
:10026000890192118B4204D389013AD0921100E0A6
:100270008909C3098B4201D3CB01C01A52418309BA
:100280008B4201D38B01C01A524143098B4201D3E7
:100290004B01C01A524103098B4201D30B01C01A12
:1002A0005241C3088B4201D3CB00C01A524183088C
:1002B0008B4201D38B00C01A5241D9D243088B42E2
:1002C00001D34B00C01A5241411A00D20146634685
:1002D00052415B10104601D34042002B00D54942E9
:1002E000704763465B1000D3404201B50020C04612
:1002F000C04602BD704770477047FEE7FFFFFFFF33
:10030000754600F025F8AE46050069465346C0081C
:10031000C000854618B020B5FFF72EFF60BC00274F
:100320004908B6460026C0C5C0C5C0C5C0C5C0C5C1
:10033000C0C5C0C5C0C5403D49008D46704710B519
:100340000446C046C0462046FFF705FF10BD00002A
:1003500000487047500000100D4801680D4A1143D5
:1003600001600D4A0121516291620168012212036C
:10037000114301600421816108488322C260016049
:1003800085218162002141600321C1607047000026
:100390008080044040000100804004400080004014
:1003A00078B5174B986B2021884398631549002432
:1003B0000C62009403E000BF0098401C009000987D
:1003C000C828F8D30F4801254030056045604460D7
:1003D00045604268D207FCD023228A609A6B80264F
:1003E000B2439A63CA68D207FCD003210163456314
:1003F00044634563416BC907FCD0856378BD000049
:10040000008204400080044070B506462048012167
:100410000170002242601F484D050560BFF34F8FF9
:10042000BFF36F8F1C4A506AC008C0005062506A08
:1004300008435062906AC008C0009062906A084306
:100440009062164802680B031A4302608161144CE3
:100450008321E160816913480068FFF79EFE00096F
:100460003146FFF79AFE010A6160C0B220600320A6
:10047000E0600720A0606069606900E02068606952
:10048000C007FBD10348803805600520606070BD5F
:100490000000001080E100E08040044080800440C3
:1004A000008000400C000010054A06E053699B06DE
:1004B000FCD50378401C1360491E0029F6D1704713
:1004C0000080004030B51E4A906840084007400F49
:1004D00000231C4C1C4903280BD002281DD00628E1
:1004E00025D0012804D15069800626D50120087046
:1004F00030BD5069C0B29E25284202D08860106885
:1005000030BDC007FCD012684868451C4D602254BD
:1005100048684028F4D14B6030BD12684868451CDB
:100520004D60225448684028F6D14B6030BD886841
:10053000FF2201321043886030BD0B7030BD0000D7
:10054000008000401000001000000010FFF704FFC2
:10055000FFF726FFE1204002FFF756FF0F4D7D26F3
:10056000F600286800280AD00D4C06206060296833
:100570000C48FFF799FF00202860072060602A21BF
:1005800009A0FFF791FF3446124903E00020401C08
:100590008842FCD3641EE4D0F8E700000400001099
:1005A0000080004010000010D5EAC3F7B5E7D7D3AC
:1005B000A3BA687474703A2F2F73686F7035383926
:1005C00037323430392E74616F62616F2E636F6D14
:1005D0000D0A00007C150000F80500000000001066
:1005E00010000000040100000806000010000010C8
:1005F000A002000020010000010000000000000037
:0806000000000000006CDC02A8
:04000005000000C136
:00000001FF
