:020000040000FA
:1000000078020010650100006D0100006F01000022
:1000100000000000000000000000000000000000E0
:10002000000000000000000000000000710100005E
:100030000000000000000000730100003104000017
:1000400077010000770100007701000077010000D0
:1000500077010000770100007701000077010000C0
:1000600077010000770100007701000077010000B0
:1000700077010000770100007701000077010000A0
:100080007701000077010000770100007701000090
:100090007701000077010000770100007701000080
:1000A0007701000077010000770100007701000070
:1000B00011040000770100007701000077010000C3
:1000C00000F002F800F03EF80CA030C80838241800
:1000D0002D18A246671EAB4654465D46AC4201D180
:1000E00000F030F87E460F3E0FCCB6460126334274
:1000F00000D0FB1AA246AB46334318474C0400001D
:100100006C040000103A02D378C878C1FAD85207BC
:1001100001D330C830C101D504680C6070470000BD
:100120000023002400250026103A01D378C1FBD813
:10013000520700D330C100D50B6070471FB51FBDFB
:1001400010B510BD00F0DCF81146FFF7F7FF00F026
:10015000B5F900F0F4F803B4FFF7F2FF03BC00F0C8
:10016000CCF800000748804707480047FEE7FEE755
:10017000FEE7FEE7FEE7FEE704480549034A054BB4
:100180007047000055040000C10000007800001016
:1001900078020010780000107047002203098B429B
:1001A0002CD3030A8B4211D300239C464EE0034616
:1001B0000B433CD4002243088B4231D303098B42CA
:1001C0001CD3030A8B4201D394463FE0C3098B4200
:1001D00001D3CB01C01A524183098B4201D38B0159
:1001E000C01A524143098B4201D34B01C01A5241FC
:1001F00003098B4201D30B01C01A5241C3088B4241
:1002000001D3CB00C01A524183088B4201D38B002B
:10021000C01A524143088B4201D34B00C01A5241CD
:10022000411A00D201465241104670475DE0CA0FA4
:1002300000D04942031000D34042534000229C4664
:1002400003098B422DD3030A8B4212D3FC2289016E
:1002500012BA030A8B420CD3890192118B4208D344
:10026000890192118B4204D389013AD0921100E0A6
:100270008909C3098B4201D3CB01C01A52418309BA
:100280008B4201D38B01C01A524143098B4201D3E7
:100290004B01C01A524103098B4201D30B01C01A12
:1002A0005241C3088B4201D3CB00C01A524183088C
:1002B0008B4201D38B00C01A5241D9D243088B42E2
:1002C00001D34B00C01A5241411A00D20146634685
:1002D00052415B10104601D34042002B00D54942E9
:1002E000704763465B1000D3404201B50020C04612
:1002F000C04602BD704770477047FEE7FFFFFFFF33
:10030000754600F025F8AE46050069465346C0081C
:10031000C000854618B020B5FFF72EFF60BC00274F
:100320004908B6460026C0C5C0C5C0C5C0C5C0C5C1
:10033000C0C5C0C5C0C5403D49008D46704710B519
:100340000446C046C0462046FFF705FF10BD00002A
:10035000004870471400001010B50F480168402293
:10036000114301600D48026820218A4302600C4A53
:10037000936802242343936042688A434260826800
:100380008A438260C2688A43C26002690A4302618A
:10039000C8050449086010BD8080044000800350F7
:1003A0004040044000E100E007480168402211435A
:1003B000016006480268012149020A4302600448BC
:1003C000C26B8A43C2637047808004400080015042
:1003D000C03F01500348C16B012252021143C16367
:1003E00070470000C03F01500348C16B0122520218
:1003F0009143C16370470000C03F01500348C16B87
:10040000012252025140C16370470000C03F0150B9
:1004100005488169890606D52021C161034801216B
:10042000416005218160704700800350000000108A
:1004300010B5074C2068002808D1E068401CE06037
:10044000642803D3FFF7DAFF0020E06010BD00004E
:100450000000001078B5174B986B202188439863F3
:10046000154900240C62009403E000BF0098401C72
:1004700000900098C828F8D30F4801254030056047
:100480004560446045604268D207FCD023228A6000
:100490009A6B8026B2439A63CA68D207FCD00321C4
:1004A0000163456344634563416BC907FCD08563C1
:1004B00078BD00000082044000800440FFF774FF14
:1004C000FFF74AFF1A4864210068FFF766FE1949E2
:1004D000401E002688420BD8174948611748072359
:1004E000C2691202120A4C042243C2618E610B617E
:1004F000134C01272760FFF777FF124DE86B80064A
:10050000FCD4A068401EA060FBD1E86B8006F5D447
:10051000E86B8006F2D42068012803D02760FFF73B
:1005200063FFEBE72660E660FFF754FFE6E70000B5
:1005300010000010FFFFFF0000E000E004ED00E00D
:1005400000000010C03F03506805000000000010CC
:1005500014000000040100007C05000014000010DD
:100560006402000020010000010000000000000003
:0C0570000000000000000000006CDC0235
:04000005000000C136
:00000001FF
